{
  "contractName": "Ships",
  "abi": [
    {
      "constant": true,
      "inputs": [
        {
          "name": "",
          "type": "address"
        },
        {
          "name": "",
          "type": "uint256"
        }
      ],
      "name": "votingFor",
      "outputs": [
        {
          "name": "",
          "type": "address"
        }
      ],
      "payable": false,
      "stateMutability": "view",
      "type": "function"
    },
    {
      "constant": true,
      "inputs": [
        {
          "name": "",
          "type": "address"
        },
        {
          "name": "",
          "type": "uint256"
        }
      ],
      "name": "transferringFor",
      "outputs": [
        {
          "name": "",
          "type": "uint32"
        }
      ],
      "payable": false,
      "stateMutability": "view",
      "type": "function"
    },
    {
      "constant": true,
      "inputs": [
        {
          "name": "",
          "type": "address"
        },
        {
          "name": "",
          "type": "uint32"
        }
      ],
      "name": "shipOwnerIndexes",
      "outputs": [
        {
          "name": "",
          "type": "uint256"
        }
      ],
      "payable": false,
      "stateMutability": "view",
      "type": "function"
    },
    {
      "constant": true,
      "inputs": [
        {
          "name": "",
          "type": "address"
        },
        {
          "name": "",
          "type": "address"
        }
      ],
      "name": "operators",
      "outputs": [
        {
          "name": "",
          "type": "bool"
        }
      ],
      "payable": false,
      "stateMutability": "view",
      "type": "function"
    },
    {
      "constant": true,
      "inputs": [
        {
          "name": "",
          "type": "address"
        }
      ],
      "name": "delegates",
      "outputs": [
        {
          "name": "",
          "type": "address"
        }
      ],
      "payable": false,
      "stateMutability": "view",
      "type": "function"
    },
    {
      "constant": false,
      "inputs": [],
      "name": "renounceOwnership",
      "outputs": [],
      "payable": false,
      "stateMutability": "nonpayable",
      "type": "function"
    },
    {
      "constant": true,
      "inputs": [
        {
          "name": "",
          "type": "address"
        },
        {
          "name": "",
          "type": "uint32"
        }
      ],
      "name": "spawningForIndexes",
      "outputs": [
        {
          "name": "",
          "type": "uint256"
        }
      ],
      "payable": false,
      "stateMutability": "view",
      "type": "function"
    },
    {
      "constant": true,
      "inputs": [],
      "name": "owner",
      "outputs": [
        {
          "name": "",
          "type": "address"
        }
      ],
      "payable": false,
      "stateMutability": "view",
      "type": "function"
    },
    {
      "constant": true,
      "inputs": [
        {
          "name": "",
          "type": "address"
        },
        {
          "name": "",
          "type": "uint256"
        }
      ],
      "name": "managingFor",
      "outputs": [
        {
          "name": "",
          "type": "address"
        }
      ],
      "payable": false,
      "stateMutability": "view",
      "type": "function"
    },
    {
      "constant": true,
      "inputs": [
        {
          "name": "",
          "type": "address"
        },
        {
          "name": "",
          "type": "address"
        }
      ],
      "name": "managingForIndexes",
      "outputs": [
        {
          "name": "",
          "type": "uint256"
        }
      ],
      "payable": false,
      "stateMutability": "view",
      "type": "function"
    },
    {
      "constant": true,
      "inputs": [
        {
          "name": "",
          "type": "uint32"
        }
      ],
      "name": "ships",
      "outputs": [
        {
          "name": "owner",
          "type": "address"
        },
        {
          "name": "active",
          "type": "bool"
        },
        {
          "name": "encryptionKey",
          "type": "bytes32"
        },
        {
          "name": "authenticationKey",
          "type": "bytes32"
        },
        {
          "name": "cryptoSuiteVersion",
          "type": "uint32"
        },
        {
          "name": "keyRevisionNumber",
          "type": "uint32"
        },
        {
          "name": "continuityNumber",
          "type": "uint32"
        },
        {
          "name": "spawnCount",
          "type": "uint32"
        },
        {
          "name": "sponsor",
          "type": "uint32"
        },
        {
          "name": "hasSponsor",
          "type": "bool"
        },
        {
          "name": "escapeRequested",
          "type": "bool"
        },
        {
          "name": "escapeRequestedTo",
          "type": "uint32"
        },
        {
          "name": "spawnProxy",
          "type": "address"
        },
        {
          "name": "transferProxy",
          "type": "address"
        }
      ],
      "payable": false,
      "stateMutability": "view",
      "type": "function"
    },
    {
      "constant": true,
      "inputs": [
        {
          "name": "",
          "type": "address"
        },
        {
          "name": "",
          "type": "uint32"
        }
      ],
      "name": "transferringForIndexes",
      "outputs": [
        {
          "name": "",
          "type": "uint256"
        }
      ],
      "payable": false,
      "stateMutability": "view",
      "type": "function"
    },
    {
      "constant": true,
      "inputs": [
        {
          "name": "",
          "type": "address"
        },
        {
          "name": "",
          "type": "uint256"
        }
      ],
      "name": "spawningFor",
      "outputs": [
        {
          "name": "",
          "type": "uint32"
        }
      ],
      "payable": false,
      "stateMutability": "view",
      "type": "function"
    },
    {
      "constant": true,
      "inputs": [
        {
          "name": "",
          "type": "address"
        },
        {
          "name": "",
          "type": "address"
        }
      ],
      "name": "votingForIndexes",
      "outputs": [
        {
          "name": "",
          "type": "uint256"
        }
      ],
      "payable": false,
      "stateMutability": "view",
      "type": "function"
    },
    {
      "constant": true,
      "inputs": [
        {
          "name": "",
          "type": "address"
        },
        {
          "name": "",
          "type": "uint256"
        }
      ],
      "name": "shipsOwnedBy",
      "outputs": [
        {
          "name": "",
          "type": "uint32"
        }
      ],
      "payable": false,
      "stateMutability": "view",
      "type": "function"
    },
    {
      "constant": true,
      "inputs": [
        {
          "name": "",
          "type": "uint256"
        }
      ],
      "name": "dnsDomains",
      "outputs": [
        {
          "name": "",
          "type": "string"
        }
      ],
      "payable": false,
      "stateMutability": "view",
      "type": "function"
    },
    {
      "constant": false,
      "inputs": [
        {
          "name": "newOwner",
          "type": "address"
        }
      ],
      "name": "transferOwnership",
      "outputs": [],
      "payable": false,
      "stateMutability": "nonpayable",
      "type": "function"
    },
    {
      "constant": true,
      "inputs": [
        {
          "name": "",
          "type": "address"
        }
      ],
      "name": "managers",
      "outputs": [
        {
          "name": "",
          "type": "address"
        }
      ],
      "payable": false,
      "stateMutability": "view",
      "type": "function"
    },
    {
      "inputs": [],
      "payable": false,
      "stateMutability": "nonpayable",
      "type": "constructor"
    },
    {
      "anonymous": false,
      "inputs": [
        {
          "indexed": true,
          "name": "ship",
          "type": "uint32"
        },
        {
          "indexed": true,
          "name": "owner",
          "type": "address"
        }
      ],
      "name": "OwnerChanged",
      "type": "event"
    },
    {
      "anonymous": false,
      "inputs": [
        {
          "indexed": true,
          "name": "ship",
          "type": "uint32"
        }
      ],
      "name": "Activated",
      "type": "event"
    },
    {
      "anonymous": false,
      "inputs": [
        {
          "indexed": true,
          "name": "parent",
          "type": "uint32"
        },
        {
          "indexed": false,
          "name": "child",
          "type": "uint32"
        }
      ],
      "name": "Spawned",
      "type": "event"
    },
    {
      "anonymous": false,
      "inputs": [
        {
          "indexed": true,
          "name": "ship",
          "type": "uint32"
        },
        {
          "indexed": true,
          "name": "sponsor",
          "type": "uint32"
        }
      ],
      "name": "EscapeRequested",
      "type": "event"
    },
    {
      "anonymous": false,
      "inputs": [
        {
          "indexed": true,
          "name": "ship",
          "type": "uint32"
        },
        {
          "indexed": true,
          "name": "sponsor",
          "type": "uint32"
        }
      ],
      "name": "EscapeCanceled",
      "type": "event"
    },
    {
      "anonymous": false,
      "inputs": [
        {
          "indexed": true,
          "name": "ship",
          "type": "uint32"
        },
        {
          "indexed": true,
          "name": "sponsor",
          "type": "uint32"
        }
      ],
      "name": "EscapeAccepted",
      "type": "event"
    },
    {
      "anonymous": false,
      "inputs": [
        {
          "indexed": true,
          "name": "ship",
          "type": "uint32"
        },
        {
          "indexed": true,
          "name": "sponsor",
          "type": "uint32"
        }
      ],
      "name": "LostSponsor",
      "type": "event"
    },
    {
      "anonymous": false,
      "inputs": [
        {
          "indexed": true,
          "name": "ship",
          "type": "uint32"
        },
        {
          "indexed": false,
          "name": "encryptionKey",
          "type": "bytes32"
        },
        {
          "indexed": false,
          "name": "authenticationKey",
          "type": "bytes32"
        },
        {
          "indexed": false,
          "name": "cryptoSuiteVersion",
          "type": "uint32"
        },
        {
          "indexed": false,
          "name": "keyRevisionNumber",
          "type": "uint32"
        }
      ],
      "name": "ChangedKeys",
      "type": "event"
    },
    {
      "anonymous": false,
      "inputs": [
        {
          "indexed": true,
          "name": "ship",
          "type": "uint32"
        },
        {
          "indexed": false,
          "name": "number",
          "type": "uint32"
        }
      ],
      "name": "BrokeContinuity",
      "type": "event"
    },
    {
      "anonymous": false,
      "inputs": [
        {
          "indexed": true,
          "name": "ship",
          "type": "uint32"
        },
        {
          "indexed": true,
          "name": "spawnProxy",
          "type": "address"
        }
      ],
      "name": "ChangedSpawnProxy",
      "type": "event"
    },
    {
      "anonymous": false,
      "inputs": [
        {
          "indexed": true,
          "name": "ship",
          "type": "uint32"
        },
        {
          "indexed": true,
          "name": "transferProxy",
          "type": "address"
        }
      ],
      "name": "ChangedTransferProxy",
      "type": "event"
    },
    {
      "anonymous": false,
      "inputs": [
        {
          "indexed": true,
          "name": "owner",
          "type": "address"
        },
        {
          "indexed": true,
          "name": "manager",
          "type": "address"
        }
      ],
      "name": "ChangedManager",
      "type": "event"
    },
    {
      "anonymous": false,
      "inputs": [
        {
          "indexed": true,
          "name": "owner",
          "type": "address"
        },
        {
          "indexed": true,
          "name": "delegate",
          "type": "address"
        }
      ],
      "name": "ChangedDelegate",
      "type": "event"
    },
    {
      "anonymous": false,
      "inputs": [
        {
          "indexed": false,
          "name": "primary",
          "type": "string"
        },
        {
          "indexed": false,
          "name": "secondary",
          "type": "string"
        },
        {
          "indexed": false,
          "name": "tertiary",
          "type": "string"
        }
      ],
      "name": "ChangedDns",
      "type": "event"
    },
    {
      "anonymous": false,
      "inputs": [
        {
          "indexed": true,
          "name": "previousOwner",
          "type": "address"
        },
        {
          "indexed": true,
          "name": "newOwner",
          "type": "address"
        }
      ],
      "name": "OwnershipTransferred",
      "type": "event"
    },
    {
      "constant": false,
      "inputs": [
        {
          "name": "_primary",
          "type": "string"
        },
        {
          "name": "_secondary",
          "type": "string"
        },
        {
          "name": "_tertiary",
          "type": "string"
        }
      ],
      "name": "setDnsDomains",
      "outputs": [],
      "payable": false,
      "stateMutability": "nonpayable",
      "type": "function"
    },
    {
      "constant": true,
      "inputs": [],
      "name": "getOwnedShips",
      "outputs": [
        {
          "name": "ownedShips",
          "type": "uint32[]"
        }
      ],
      "payable": false,
      "stateMutability": "view",
      "type": "function"
    },
    {
      "constant": true,
      "inputs": [
        {
          "name": "_whose",
          "type": "address"
        }
      ],
      "name": "getOwnedShipsByAddress",
      "outputs": [
        {
          "name": "ownedShips",
          "type": "uint32[]"
        }
      ],
      "payable": false,
      "stateMutability": "view",
      "type": "function"
    },
    {
      "constant": true,
      "inputs": [
        {
          "name": "_whose",
          "type": "address"
        }
      ],
      "name": "getOwnedShipCount",
      "outputs": [
        {
          "name": "count",
          "type": "uint256"
        }
      ],
      "payable": false,
      "stateMutability": "view",
      "type": "function"
    },
    {
      "constant": true,
      "inputs": [
        {
          "name": "_whose",
          "type": "address"
        },
        {
          "name": "_index",
          "type": "uint256"
        }
      ],
      "name": "getOwnedShipAtIndex",
      "outputs": [
        {
          "name": "ship",
          "type": "uint32"
        }
      ],
      "payable": false,
      "stateMutability": "view",
      "type": "function"
    },
    {
      "constant": true,
      "inputs": [],
      "name": "isOwner",
      "outputs": [
        {
          "name": "",
          "type": "bool"
        }
      ],
      "payable": false,
      "stateMutability": "view",
      "type": "function"
    },
    {
      "constant": true,
      "inputs": [
        {
          "name": "_ship",
          "type": "uint32"
        },
        {
          "name": "_address",
          "type": "address"
        }
      ],
      "name": "isOwner",
      "outputs": [
        {
          "name": "result",
          "type": "bool"
        }
      ],
      "payable": false,
      "stateMutability": "view",
      "type": "function"
    },
    {
      "constant": true,
      "inputs": [
        {
          "name": "_ship",
          "type": "uint32"
        }
      ],
      "name": "getOwner",
      "outputs": [
        {
          "name": "owner",
          "type": "address"
        }
      ],
      "payable": false,
      "stateMutability": "view",
      "type": "function"
    },
    {
      "constant": false,
      "inputs": [
        {
          "name": "_ship",
          "type": "uint32"
        },
        {
          "name": "_owner",
          "type": "address"
        }
      ],
      "name": "setOwner",
      "outputs": [],
      "payable": false,
      "stateMutability": "nonpayable",
      "type": "function"
    },
    {
      "constant": true,
      "inputs": [
        {
          "name": "_owner",
          "type": "address"
        },
        {
          "name": "_manager",
          "type": "address"
        }
      ],
      "name": "isManager",
      "outputs": [
        {
          "name": "result",
          "type": "bool"
        }
      ],
      "payable": false,
      "stateMutability": "view",
      "type": "function"
    },
    {
      "constant": true,
      "inputs": [
        {
          "name": "_ship",
          "type": "uint32"
        },
        {
          "name": "_who",
          "type": "address"
        }
      ],
      "name": "canManage",
      "outputs": [
        {
          "name": "result",
          "type": "bool"
        }
      ],
      "payable": false,
      "stateMutability": "view",
      "type": "function"
    },
    {
      "constant": false,
      "inputs": [
        {
          "name": "_owner",
          "type": "address"
        },
        {
          "name": "_manager",
          "type": "address"
        }
      ],
      "name": "setManager",
      "outputs": [],
      "payable": false,
      "stateMutability": "nonpayable",
      "type": "function"
    },
    {
      "constant": true,
      "inputs": [
        {
          "name": "_manager",
          "type": "address"
        }
      ],
      "name": "getManagingForCount",
      "outputs": [
        {
          "name": "count",
          "type": "uint256"
        }
      ],
      "payable": false,
      "stateMutability": "view",
      "type": "function"
    },
    {
      "constant": true,
      "inputs": [
        {
          "name": "_manager",
          "type": "address"
        }
      ],
      "name": "getManagingFor",
      "outputs": [
        {
          "name": "mfor",
          "type": "address[]"
        }
      ],
      "payable": false,
      "stateMutability": "view",
      "type": "function"
    },
    {
      "constant": true,
      "inputs": [
        {
          "name": "_owner",
          "type": "address"
        },
        {
          "name": "_delegate",
          "type": "address"
        }
      ],
      "name": "isDelegate",
      "outputs": [
        {
          "name": "result",
          "type": "bool"
        }
      ],
      "payable": false,
      "stateMutability": "view",
      "type": "function"
    },
    {
      "constant": true,
      "inputs": [
        {
          "name": "_ship",
          "type": "uint32"
        },
        {
          "name": "_who",
          "type": "address"
        }
      ],
      "name": "canVoteAs",
      "outputs": [
        {
          "name": "result",
          "type": "bool"
        }
      ],
      "payable": false,
      "stateMutability": "view",
      "type": "function"
    },
    {
      "constant": false,
      "inputs": [
        {
          "name": "_owner",
          "type": "address"
        },
        {
          "name": "_delegate",
          "type": "address"
        }
      ],
      "name": "setDelegate",
      "outputs": [],
      "payable": false,
      "stateMutability": "nonpayable",
      "type": "function"
    },
    {
      "constant": true,
      "inputs": [
        {
          "name": "_delegate",
          "type": "address"
        }
      ],
      "name": "getVotingForCount",
      "outputs": [
        {
          "name": "count",
          "type": "uint256"
        }
      ],
      "payable": false,
      "stateMutability": "view",
      "type": "function"
    },
    {
      "constant": true,
      "inputs": [
        {
          "name": "_delegate",
          "type": "address"
        }
      ],
      "name": "getVotingFor",
      "outputs": [
        {
          "name": "vfor",
          "type": "address[]"
        }
      ],
      "payable": false,
      "stateMutability": "view",
      "type": "function"
    },
    {
      "constant": true,
      "inputs": [
        {
          "name": "_ship",
          "type": "uint32"
        }
      ],
      "name": "isActive",
      "outputs": [
        {
          "name": "equals",
          "type": "bool"
        }
      ],
      "payable": false,
      "stateMutability": "view",
      "type": "function"
    },
    {
      "constant": false,
      "inputs": [
        {
          "name": "_ship",
          "type": "uint32"
        }
      ],
      "name": "activateShip",
      "outputs": [],
      "payable": false,
      "stateMutability": "nonpayable",
      "type": "function"
    },
    {
      "constant": false,
      "inputs": [
        {
          "name": "_ship",
          "type": "uint32"
        }
      ],
      "name": "registerSpawned",
      "outputs": [],
      "payable": false,
      "stateMutability": "nonpayable",
      "type": "function"
    },
    {
      "constant": true,
      "inputs": [
        {
          "name": "_ship",
          "type": "uint32"
        }
      ],
      "name": "getKeys",
      "outputs": [
        {
          "name": "crypt",
          "type": "bytes32"
        },
        {
          "name": "auth",
          "type": "bytes32"
        },
        {
          "name": "suite",
          "type": "uint32"
        },
        {
          "name": "revision",
          "type": "uint32"
        }
      ],
      "payable": false,
      "stateMutability": "view",
      "type": "function"
    },
    {
      "constant": true,
      "inputs": [
        {
          "name": "_ship",
          "type": "uint32"
        }
      ],
      "name": "getKeyRevisionNumber",
      "outputs": [
        {
          "name": "revision",
          "type": "uint32"
        }
      ],
      "payable": false,
      "stateMutability": "view",
      "type": "function"
    },
    {
      "constant": true,
      "inputs": [
        {
          "name": "_ship",
          "type": "uint32"
        }
      ],
      "name": "hasBeenBooted",
      "outputs": [
        {
          "name": "result",
          "type": "bool"
        }
      ],
      "payable": false,
      "stateMutability": "view",
      "type": "function"
    },
    {
      "constant": true,
      "inputs": [
        {
          "name": "_ship",
          "type": "uint32"
        }
      ],
      "name": "isLive",
      "outputs": [
        {
          "name": "result",
          "type": "bool"
        }
      ],
      "payable": false,
      "stateMutability": "view",
      "type": "function"
    },
    {
      "constant": false,
      "inputs": [
        {
          "name": "_ship",
          "type": "uint32"
        },
        {
          "name": "_encryptionKey",
          "type": "bytes32"
        },
        {
          "name": "_authenticationKey",
          "type": "bytes32"
        },
        {
          "name": "_cryptoSuiteVersion",
          "type": "uint32"
        }
      ],
      "name": "setKeys",
      "outputs": [],
      "payable": false,
      "stateMutability": "nonpayable",
      "type": "function"
    },
    {
      "constant": true,
      "inputs": [
        {
          "name": "_ship",
          "type": "uint32"
        }
      ],
      "name": "getContinuityNumber",
      "outputs": [
        {
          "name": "continuityNumber",
          "type": "uint32"
        }
      ],
      "payable": false,
      "stateMutability": "view",
      "type": "function"
    },
    {
      "constant": false,
      "inputs": [
        {
          "name": "_ship",
          "type": "uint32"
        }
      ],
      "name": "incrementContinuityNumber",
      "outputs": [],
      "payable": false,
      "stateMutability": "nonpayable",
      "type": "function"
    },
    {
      "constant": true,
      "inputs": [
        {
          "name": "_ship",
          "type": "uint32"
        }
      ],
      "name": "getSpawnCount",
      "outputs": [
        {
          "name": "spawnCount",
          "type": "uint32"
        }
      ],
      "payable": false,
      "stateMutability": "view",
      "type": "function"
    },
    {
      "constant": true,
      "inputs": [
        {
          "name": "_ship",
          "type": "uint32"
        }
      ],
      "name": "getSpawned",
      "outputs": [
        {
          "name": "spawned",
          "type": "uint32[]"
        }
      ],
      "payable": false,
      "stateMutability": "view",
      "type": "function"
    },
    {
      "constant": true,
      "inputs": [
        {
          "name": "_ship",
          "type": "uint32"
        }
      ],
      "name": "getSponsor",
      "outputs": [
        {
          "name": "sponsor",
          "type": "uint32"
        }
      ],
      "payable": false,
      "stateMutability": "view",
      "type": "function"
    },
    {
      "constant": true,
      "inputs": [
        {
          "name": "_ship",
          "type": "uint32"
        }
      ],
      "name": "hasSponsor",
      "outputs": [
        {
          "name": "has",
          "type": "bool"
        }
      ],
      "payable": false,
      "stateMutability": "view",
      "type": "function"
    },
    {
      "constant": true,
      "inputs": [
        {
          "name": "_ship",
          "type": "uint32"
        },
        {
          "name": "_sponsor",
          "type": "uint32"
        }
      ],
      "name": "isSponsor",
      "outputs": [
        {
          "name": "result",
          "type": "bool"
        }
      ],
      "payable": false,
      "stateMutability": "view",
      "type": "function"
    },
    {
      "constant": false,
      "inputs": [
        {
          "name": "_ship",
          "type": "uint32"
        }
      ],
      "name": "loseSponsor",
      "outputs": [],
      "payable": false,
      "stateMutability": "nonpayable",
      "type": "function"
    },
    {
      "constant": true,
      "inputs": [
        {
          "name": "_ship",
          "type": "uint32"
        }
      ],
      "name": "isEscaping",
      "outputs": [
        {
          "name": "escaping",
          "type": "bool"
        }
      ],
      "payable": false,
      "stateMutability": "view",
      "type": "function"
    },
    {
      "constant": true,
      "inputs": [
        {
          "name": "_ship",
          "type": "uint32"
        }
      ],
      "name": "getEscapeRequest",
      "outputs": [
        {
          "name": "escape",
          "type": "uint32"
        }
      ],
      "payable": false,
      "stateMutability": "view",
      "type": "function"
    },
    {
      "constant": true,
      "inputs": [
        {
          "name": "_ship",
          "type": "uint32"
        },
        {
          "name": "_sponsor",
          "type": "uint32"
        }
      ],
      "name": "isRequestingEscapeTo",
      "outputs": [
        {
          "name": "equals",
          "type": "bool"
        }
      ],
      "payable": false,
      "stateMutability": "view",
      "type": "function"
    },
    {
      "constant": false,
      "inputs": [
        {
          "name": "_ship",
          "type": "uint32"
        },
        {
          "name": "_sponsor",
          "type": "uint32"
        }
      ],
      "name": "setEscapeRequest",
      "outputs": [],
      "payable": false,
      "stateMutability": "nonpayable",
      "type": "function"
    },
    {
      "constant": false,
      "inputs": [
        {
          "name": "_ship",
          "type": "uint32"
        }
      ],
      "name": "cancelEscape",
      "outputs": [],
      "payable": false,
      "stateMutability": "nonpayable",
      "type": "function"
    },
    {
      "constant": false,
      "inputs": [
        {
          "name": "_ship",
          "type": "uint32"
        }
      ],
      "name": "doEscape",
      "outputs": [],
      "payable": false,
      "stateMutability": "nonpayable",
      "type": "function"
    },
    {
      "constant": true,
      "inputs": [
        {
          "name": "_ship",
          "type": "uint32"
        },
        {
          "name": "_spawner",
          "type": "address"
        }
      ],
      "name": "isSpawnProxy",
      "outputs": [
        {
          "name": "result",
          "type": "bool"
        }
      ],
      "payable": false,
      "stateMutability": "view",
      "type": "function"
    },
    {
      "constant": true,
      "inputs": [
        {
          "name": "_ship",
          "type": "uint32"
        }
      ],
      "name": "getSpawnProxy",
      "outputs": [
        {
          "name": "spawnProxy",
          "type": "address"
        }
      ],
      "payable": false,
      "stateMutability": "view",
      "type": "function"
    },
    {
      "constant": false,
      "inputs": [
        {
          "name": "_ship",
          "type": "uint32"
        },
        {
          "name": "_spawner",
          "type": "address"
        }
      ],
      "name": "setSpawnProxy",
      "outputs": [],
      "payable": false,
      "stateMutability": "nonpayable",
      "type": "function"
    },
    {
      "constant": true,
      "inputs": [
        {
          "name": "_proxy",
          "type": "address"
        }
      ],
      "name": "getSpawningForCount",
      "outputs": [
        {
          "name": "count",
          "type": "uint256"
        }
      ],
      "payable": false,
      "stateMutability": "view",
      "type": "function"
    },
    {
      "constant": true,
      "inputs": [
        {
          "name": "_proxy",
          "type": "address"
        }
      ],
      "name": "getSpawningFor",
      "outputs": [
        {
          "name": "sfor",
          "type": "uint32[]"
        }
      ],
      "payable": false,
      "stateMutability": "view",
      "type": "function"
    },
    {
      "constant": true,
      "inputs": [
        {
          "name": "_ship",
          "type": "uint32"
        },
        {
          "name": "_transferrer",
          "type": "address"
        }
      ],
      "name": "isTransferProxy",
      "outputs": [
        {
          "name": "result",
          "type": "bool"
        }
      ],
      "payable": false,
      "stateMutability": "view",
      "type": "function"
    },
    {
      "constant": true,
      "inputs": [
        {
          "name": "_ship",
          "type": "uint32"
        }
      ],
      "name": "getTransferProxy",
      "outputs": [
        {
          "name": "transferProxy",
          "type": "address"
        }
      ],
      "payable": false,
      "stateMutability": "view",
      "type": "function"
    },
    {
      "constant": false,
      "inputs": [
        {
          "name": "_ship",
          "type": "uint32"
        },
        {
          "name": "_transferrer",
          "type": "address"
        }
      ],
      "name": "setTransferProxy",
      "outputs": [],
      "payable": false,
      "stateMutability": "nonpayable",
      "type": "function"
    },
    {
      "constant": true,
      "inputs": [
        {
          "name": "_proxy",
          "type": "address"
        }
      ],
      "name": "getTransferringForCount",
      "outputs": [
        {
          "name": "count",
          "type": "uint256"
        }
      ],
      "payable": false,
      "stateMutability": "view",
      "type": "function"
    },
    {
      "constant": true,
      "inputs": [
        {
          "name": "_proxy",
          "type": "address"
        }
      ],
      "name": "getTransferringFor",
      "outputs": [
        {
          "name": "tfor",
          "type": "uint32[]"
        }
      ],
      "payable": false,
      "stateMutability": "view",
      "type": "function"
    },
    {
      "constant": true,
      "inputs": [
        {
          "name": "_owner",
          "type": "address"
        },
        {
          "name": "_operator",
          "type": "address"
        }
      ],
      "name": "isOperator",
      "outputs": [
        {
          "name": "result",
          "type": "bool"
        }
      ],
      "payable": false,
      "stateMutability": "view",
      "type": "function"
    },
    {
      "constant": false,
      "inputs": [
        {
          "name": "_owner",
          "type": "address"
        },
        {
          "name": "_operator",
          "type": "address"
        },
        {
          "name": "_approved",
          "type": "bool"
        }
      ],
      "name": "setOperator",
      "outputs": [],
      "payable": false,
      "stateMutability": "nonpayable",
      "type": "function"
    },
    {
      "constant": true,
      "inputs": [
        {
          "name": "_ship",
          "type": "uint32"
        }
      ],
      "name": "getPrefix",
      "outputs": [
        {
          "name": "parent",
          "type": "uint16"
        }
      ],
      "payable": false,
      "stateMutability": "pure",
      "type": "function"
    },
    {
      "constant": true,
      "inputs": [
        {
          "name": "_ship",
          "type": "uint32"
        }
      ],
      "name": "getShipClass",
      "outputs": [
        {
          "name": "_class",
          "type": "uint8"
        }
      ],
      "payable": false,
      "stateMutability": "pure",
      "type": "function"
    }
  ],
  "bytecode": "0x60806040523480156200001157600080fd5b5060008054600160a060020a0319163317808255604051600160a060020a039190911691907f8be0079c531659141344cd1fd0a4f28419497f9722a3daafe3b4186f6b6457e0908290a360408051808201825260098082527f75726269742e6f726700000000000000000000000000000000000000000000006020808401829052845180860186528381528082018390528551808701909652928552840152620000c492640100000000620000ca810204565b62000354565b620000dd640100000000620002a0810204565b1515620000e957600080fd5b8251620000fe90600f906020860190620002b2565b50815162000114906010906020850190620002b2565b5080516200012a906011906020840190620002b2565b507ffafd04ade1daae2e1fdb0fc1cc6a899fd424063ed5c92120e67e073053b9489883838360405180806020018060200180602001848103845287818151815260200191508051906020019080838360005b83811015620001965781810151838201526020016200017c565b50505050905090810190601f168015620001c45780820380516001836020036101000a031916815260200191505b50848103835286518152865160209182019188019080838360005b83811015620001f9578181015183820152602001620001df565b50505050905090810190601f168015620002275780820380516001836020036101000a031916815260200191505b50848103825285518152855160209182019187019080838360005b838110156200025c57818101518382015260200162000242565b50505050905090810190601f1680156200028a5780820380516001836020036101000a031916815260200191505b50965050505050505060405180910390a1505050565b600054600160a060020a031633145b90565b828054600181600116156101000203166002900490600052602060002090601f016020900481019282601f10620002f557805160ff191683800117855562000325565b8280016001018555821562000325579182015b828111156200032557825182559160200191906001019062000308565b506200033392915062000337565b5090565b620002af91905b808211156200033357600081556001016200033e565b61346580620003646000396000f3006080604052600436106103585763ffffffff7c010000000000000000000000000000000000000000000000000000000060003504166304bbb61d811461035d578063073167da1461039d57806308083039146103da5780630a7354d9146104125780630f7bbcc514610483578063108d995b146104bf57806313063180146104dd5780631725d8aa146104fd57806324541f781461052157806324ba1a461461053f5780632637588e14610569578063293a9169146105905780632a19642c146105ae5780632c7ba564146105d85780632ef0e1ca146106025780633262207c1461062957806337848b6b146106535780633b17b4ea14610674578063439f7d3c14610692578063587cde1e146106b05780635c873849146106d15780635df8122f146106f85780635e19b3051461071f5780635fec5d0b1461073d578063621b23e2146107645780636436b1b914610782578063715018a6146107a357806376944d5b146107b857806377eb4c50146107e2578063846f652b146108005780638766962e1461081e5780638d2d3f411461083f5780638da5cb5b1461085d5780638f32d59b146108725780639137fe0a1461088757806391398f25146108b157806396744ed1146108d25780639b0d1b2c146108f65780639b350e12146109175780639cfa3e1314610935578063a0b4388a14610956578063a2af900714610974578063a63458591461099b578063b3220694146109bf578063b4e05b8914610ae8578063b6363cf214610afd578063b65afedd14610b24578063bac55edd14610b4e578063bc562b9e14610c23578063bc735d9014610c41578063c17ad9d814610c6d578063c210c62314610c8b578063c6d761d414610cd5578063caf590f914610cf3578063d2588e2014610d1d578063d2a9b6ed14610d47578063d5c5164f14610d68578063da3cbf9614610d8c578063dc15c7a414610dce578063ddc3595014610df5578063e01cff8414610e1f578063e0d77ff614610e40578063e4a358d714610e5e578063ec7dda4714610e93578063eccc8ff114610eb7578063f2fde38b14610f44578063f491491914610f65578063f4e3be2d14610f83578063f5af662114610fa1578063f9b87d4014610fbf578063fdb357be14610feb578063fde907331461100c578063fdff9b4d14611030575b600080fd5b34801561036957600080fd5b50610381600160a060020a0360043516602435611051565b60408051600160a060020a039092168252519081900360200190f35b3480156103a957600080fd5b506103c1600160a060020a0360043516602435611088565b6040805163ffffffff9092168252519081900360200190f35b3480156103e657600080fd5b506103fe63ffffffff600435811690602435166110d0565b604080519115158252519081900360200190f35b34801561041e57600080fd5b50610433600160a060020a0360043516611115565b60408051602080825283518183015283519192839290830191858101910280838360005b8381101561046f578181015183820152602001610457565b505050509050019250505060405180910390f35b34801561048f57600080fd5b506104ad600160a060020a036004351663ffffffff602435166111ae565b60408051918252519081900360200190f35b3480156104cb57600080fd5b506103c163ffffffff600435166111cb565b3480156104e957600080fd5b506104fb63ffffffff600435166111f5565b005b34801561050957600080fd5b506103c1600160a060020a03600435166024356112b3565b34801561052d57600080fd5b5061038163ffffffff60043516611315565b34801561054b57600080fd5b506103fe63ffffffff60043516600160a060020a0360243516611339565b34801561057557600080fd5b506103fe600160a060020a0360043581169060243516611375565b34801561059c57600080fd5b506103c163ffffffff60043516611395565b3480156105ba57600080fd5b506104fb63ffffffff60043516600160a060020a03602435166113c3565b3480156105e457600080fd5b506104fb63ffffffff60043516600160a060020a03602435166116f3565b34801561060e57600080fd5b506103fe600160a060020a03600435811690602435166119ec565b34801561063557600080fd5b506103fe63ffffffff60043516600160a060020a0360243516611a0e565b34801561065f57600080fd5b506104ad600160a060020a0360043516611a3a565b34801561068057600080fd5b506103fe63ffffffff60043516611a55565b34801561069e57600080fd5b506103c163ffffffff60043516611a9d565b3480156106bc57600080fd5b50610381600160a060020a0360043516611abb565b3480156106dd57600080fd5b506104fb600160a060020a0360043581169060243516611ad6565b34801561070457600080fd5b506104fb600160a060020a0360043581169060243516611d22565b34801561072b57600080fd5b506103fe63ffffffff60043516611f6d565b34801561074957600080fd5b506103fe600160a060020a0360043581169060243516611fa0565b34801561077057600080fd5b5061038163ffffffff60043516611fc2565b34801561078e57600080fd5b506104ad600160a060020a0360043516611fe3565b3480156107af57600080fd5b506104fb611ffe565b3480156107c457600080fd5b506104ad600160a060020a036004351663ffffffff6024351661205b565b3480156107ee57600080fd5b506103fe63ffffffff60043516612078565b34801561080c57600080fd5b5061043363ffffffff6004351661209e565b34801561082a57600080fd5b506104ad600160a060020a036004351661210e565b34801561084b57600080fd5b506103c163ffffffff60043516612129565b34801561086957600080fd5b5061038161214f565b34801561087e57600080fd5b506103fe61215f565b34801561089357600080fd5b506103fe63ffffffff60043516600160a060020a0360243516612170565b3480156108bd57600080fd5b50610433600160a060020a03600435166121c4565b3480156108de57600080fd5b50610381600160a060020a0360043516602435612234565b34801561090257600080fd5b50610433600160a060020a036004351661224f565b34801561092357600080fd5b506103fe63ffffffff600435166122bf565b34801561094157600080fd5b50610433600160a060020a03600435166122e6565b34801561096257600080fd5b506104fb63ffffffff6004351661235b565b34801561098057600080fd5b506104ad600160a060020a0360043581169060243516612449565b3480156109a757600080fd5b506104fb63ffffffff60043581169060243516612466565b3480156109cb57600080fd5b506109dd63ffffffff6004351661250d565b604051808f600160a060020a0316600160a060020a031681526020018e1515151581526020018d600019166000191681526020018c600019166000191681526020018b63ffffffff1663ffffffff1681526020018a63ffffffff1663ffffffff1681526020018963ffffffff1663ffffffff1681526020018863ffffffff1663ffffffff1681526020018763ffffffff1663ffffffff16815260200186151515158152602001851515151581526020018463ffffffff1663ffffffff16815260200183600160a060020a0316600160a060020a0316815260200182600160a060020a0316600160a060020a031681526020019e50505050505050505050505050505060405180910390f35b348015610af457600080fd5b506104336125d5565b348015610b0957600080fd5b506103fe600160a060020a0360043581169060243516612662565b348015610b3057600080fd5b506103fe63ffffffff60043516600160a060020a0360243516612690565b348015610b5a57600080fd5b506040805160206004803580820135601f81018490048402850184019095528484526104fb94369492936024939284019190819084018382808284375050604080516020601f89358b018035918201839004830284018301909452808352979a99988101979196509182019450925082915084018382808284375050604080516020601f89358b018035918201839004830284018301909452808352979a9998810197919650918201945092508291508401838280828437509497506126e49650505050505050565b348015610c2f57600080fd5b506104fb63ffffffff6004351661289f565b348015610c4d57600080fd5b506104fb600160a060020a03600435811690602435166044351515612931565b348015610c7957600080fd5b506104fb63ffffffff6004351661297e565b348015610c9757600080fd5b50610ca963ffffffff60043516612a74565b60408051948552602085019390935263ffffffff91821684840152166060830152519081900360800190f35b348015610ce157600080fd5b506104fb63ffffffff60043516612ab1565b348015610cff57600080fd5b506103fe63ffffffff60043516600160a060020a0360243516612b5a565b348015610d2957600080fd5b506104ad600160a060020a036004351663ffffffff60243516612b83565b348015610d5357600080fd5b50610433600160a060020a0360043516612ba0565b348015610d7457600080fd5b506103c1600160a060020a0360043516602435612c14565b348015610d9857600080fd5b50610daa63ffffffff60043516612c2f565b60405180826002811115610dba57fe5b60ff16815260200191505060405180910390f35b348015610dda57600080fd5b506104ad600160a060020a0360043581169060243516612c6a565b348015610e0157600080fd5b506104fb63ffffffff60043516600160a060020a0360243516612c87565b348015610e2b57600080fd5b506104ad600160a060020a0360043516612f13565b348015610e4c57600080fd5b506103fe63ffffffff60043516612f2e565b348015610e6a57600080fd5b50610e7c63ffffffff60043516612f57565b6040805161ffff9092168252519081900360200190f35b348015610e9f57600080fd5b506103c1600160a060020a0360043516602435612f7c565b348015610ec357600080fd5b50610ecf600435612f97565b6040805160208082528351818301528351919283929083019185019080838360005b83811015610f09578181015183820152602001610ef1565b50505050905090810190601f168015610f365780820380516001836020036101000a031916815260200191505b509250505060405180910390f35b348015610f5057600080fd5b506104fb600160a060020a0360043516613032565b348015610f7157600080fd5b506104fb63ffffffff60043516613051565b348015610f8f57600080fd5b5061038163ffffffff600435166130ee565b348015610fad57600080fd5b506103c163ffffffff60043516613120565b348015610fcb57600080fd5b506104fb63ffffffff600435811690602435906044359060643516613148565b348015610ff757600080fd5b506104ad600160a060020a0360043516613252565b34801561101857600080fd5b506103fe63ffffffff6004358116906024351661326d565b34801561103c57600080fd5b50610381600160a060020a03600435166132be565b60096020528160005260406000208181548110151561106c57fe5b600091825260209091200154600160a060020a03169150829050565b600b602052816000526040600020818154811015156110a357fe5b9060005260206000209060089182820401919006600402915091509054906101000a900463ffffffff1681565b63ffffffff821660009081526001602052604081206005810154640100000000900460ff16801561110d5750600581015463ffffffff8481169116145b949350505050565b600160a060020a0381166000908152600260209081526040918290208054835181840281018401909452808452606093928301828280156111a157602002820191906000526020600020906000905b82829054906101000a900463ffffffff1663ffffffff16815260200190600401906020826003010492830192600103820291508084116111645790505b505050505090505b919050565b600360209081526000928352604080842090915290825290205481565b63ffffffff9081166000908152600160205260409020600301546801000000000000000090041690565b60006111ff61215f565b151561120a57600080fd5b5063ffffffff81166000908152600160205260409020600581015465010000000000900460ff16151561123c57600080fd5b60058101805469ffffffffff00000000001964ff000000001963ffffffff19831663ffffffff6601000000000000909404841617166401000000001790811690925560405191811691908416907f7e447c9b1bda4b174b0796e100bf7f34ebf36dbb7fe665490b1bfce6246a9da590600090a35050565b600160a060020a0382166000908152600260205260408120805483106112d857600080fd5b80838154811015156112e657fe5b90600052602060002090600891828204019190066004029054906101000a900463ffffffff1691505092915050565b63ffffffff16600090815260016020526040902060060154600160a060020a031690565b63ffffffff82166000908152600160205260409020600501546a01000000000000000000009004600160a060020a039081169082161492915050565b600460209081526000928352604080842090915290825290205460ff1681565b63ffffffff9081166000908152600160205260409020600301546c0100000000000000000000000090041690565b60008060008060008060006113d661215f565b15156113e157600080fd5b63ffffffff891660009081526001602052604090206005810154909750600160a060020a036a0100000000000000000000909104811696508816861415611427576116e8565b600160a060020a0386161561159c57600160a060020a0386166000908152600e6020908152604080832063ffffffff8d1684529091528120549550851161146a57fe5b600160a060020a0386166000908152600d60205260409020805460001996870196919550908101935084908490811061149f57fe5b90600052602060002090600891828204019190066004029054906101000a900463ffffffff1691508184868154811015156114d657fe5b600091825260208083206008830401805460079093166004026101000a63ffffffff818102199094169584160294909417909355600160a060020a0389168252600e835260408083209186168352925220600186019055835484908490811061153b57fe5b90600052602060002090600891828204019190066004026101000a81549063ffffffff02191690558284816115709190613349565b50600160a060020a0386166000908152600e6020908152604080832063ffffffff8d1684529091528120555b600160a060020a0388161561166e57600d600089600160a060020a0316600160a060020a0316815260200190815260200160002090508089908060018154018082558091505090600182039060005260206000209060089182820401919006600402909192909190916101000a81548163ffffffff021916908363ffffffff160217905550508080549050600e60008a600160a060020a0316600160a060020a0316815260200190815260200160002060008b63ffffffff1663ffffffff168152602001908152602001600020819055505b6005870180547fffff0000000000000000000000000000000000000000ffffffffffffffffffff166a0100000000000000000000600160a060020a038b169081029190911790915560405163ffffffff8b16907f902736af7b3cefe10d9e840aed0d687e35c84095122b25051a20ead8866f006d90600090a35b505050505050505050565b600080600080600080600061170661215f565b151561171157600080fd5b63ffffffff891660009081526001602052604090206006810154909750600160a060020a0390811696508816861415611749576116e8565b600160a060020a038616156118be57600160a060020a0386166000908152600c6020908152604080832063ffffffff8d1684529091528120549550851161178c57fe5b600160a060020a0386166000908152600b6020526040902080546000199687019691955090810193508490849081106117c157fe5b90600052602060002090600891828204019190066004029054906101000a900463ffffffff1691508184868154811015156117f857fe5b600091825260208083206008830401805460079093166004026101000a63ffffffff818102199094169584160294909417909355600160a060020a0389168252600c835260408083209186168352925220600186019055835484908490811061185d57fe5b90600052602060002090600891828204019190066004026101000a81549063ffffffff02191690558284816118929190613349565b50600160a060020a0386166000908152600c6020908152604080832063ffffffff8d1684529091528120555b600160a060020a0388161561199057600b600089600160a060020a0316600160a060020a0316815260200190815260200160002090508089908060018154018082558091505090600182039060005260206000209060089182820401919006600402909192909190916101000a81548163ffffffff021916908363ffffffff160217905550508080549050600c60008a600160a060020a0316600160a060020a0316815260200190815260200160002060008b63ffffffff1663ffffffff168152602001908152602001600020819055505b600687018054600160a060020a031916600160a060020a038a1690811790915560405163ffffffff8b16907fcfe369b7197e7f0cf06793ae2472a9b13583fecbed2f78dfa14d1f10796b847c90600090a3505050505050505050565b600160a060020a03918216600090815260056020526040902054821691161490565b63ffffffff91909116600090815260016020526040902060060154600160a060020a0391821691161490565b600160a060020a031660009081526002602052604090205490565b63ffffffff8116600090815260016020819052604082209081015415801590611a815750600281015415155b8015611a965750600381015463ffffffff1615155b9392505050565b63ffffffff9081166000908152600160205260409020600501541690565b600860205260009081526040902054600160a060020a031681565b600080600080600080611ae761215f565b1515611af257600080fd5b600160a060020a03808916600090815260086020526040902054811696508716861415611b1e57611d18565b600160a060020a03861615611c5e57600160a060020a038087166000908152600a60209081526040808320938c1683529290529081205495508511611b5f57fe5b600160a060020a03861660009081526009602052604090208054600019968701969195509081019350849084908110611b9457fe5b6000918252602090912001548454600160a060020a0390911692508290859087908110611bbd57fe5b60009182526020808320919091018054600160a060020a031916600160a060020a039485161790558883168252600a815260408083209386168352929052206001860190558354849084908110611c1057fe5b60009182526020909120018054600160a060020a031916905582611c34858261337d565b50600160a060020a038087166000908152600a60209081526040808320938c168352929052908120555b600160a060020a03871615611cc45750600160a060020a0386811660008181526009602090815260408083208054600181018255818552838520018054600160a060020a031916968e1696871790558054948452600a8352818420958452949091529020555b600160a060020a038881166000818152600860205260408082208054600160a060020a031916948c169485179055517f3aca0f3b26cae754a7437b1844178ce607f21ca0cbed955e062196d33c91de6c9190a35b5050505050505050565b600080600080600080611d3361215f565b1515611d3e57600080fd5b600160a060020a03808916600090815260056020526040902054811696508716861415611d6a57611d18565b600160a060020a03861615611eaa57600160a060020a038087166000908152600760209081526040808320938c1683529290529081205495508511611dab57fe5b600160a060020a03861660009081526006602052604090208054600019968701969195509081019350849084908110611de057fe5b6000918252602090912001548454600160a060020a0390911692508290859087908110611e0957fe5b60009182526020808320919091018054600160a060020a031916600160a060020a0394851617905588831682526007815260408083209386168352929052206001860190558354849084908110611e5c57fe5b60009182526020909120018054600160a060020a031916905582611e80858261337d565b50600160a060020a038087166000908152600760209081526040808320938c168352929052908120555b600160a060020a03871615611f105750600160a060020a0386811660008181526006602090815260408083208054600181018255818552838520018054600160a060020a031916968e169687179055805494845260078352818420958452949091529020555b600160a060020a038881166000818152600560205260408082208054600160a060020a031916948c169485179055517f73cd9f21dac5ada00bcec622ae57b3623d62867a010448a4fa9919b1af378de79190a35050505050505050565b63ffffffff1660009081526001602052604090205474010000000000000000000000000000000000000000900460ff1690565b600160a060020a03918216600090815260086020526040902054821691161490565b63ffffffff16600090815260016020526040902054600160a060020a031690565b600160a060020a03166000908152600d602052604090205490565b61200661215f565b151561201157600080fd5b60008054604051600160a060020a03909116907f8be0079c531659141344cd1fd0a4f28419497f9722a3daafe3b4186f6b6457e0908390a360008054600160a060020a0319169055565b600e60209081526000928352604080842090915290825290205481565b63ffffffff16600090815260016020526040902060050154640100000000900460ff1690565b63ffffffff81166000908152600160209081526040918290206004018054835181840281018401909452808452606093928301828280156111a1576000918252602091829020805463ffffffff168452908202830192909160049101808411611164575094979650505050505050565b600160a060020a031660009081526006602052604090205490565b63ffffffff90811660009081526001602052604090206003015464010000000090041690565b600054600160a060020a03165b90565b600054600160a060020a0316331490565b63ffffffff8216600090815260016020526040812054600160a060020a0390811690831681148061110d5750600160a060020a03908116600090815260056020526040902054811692169190911492915050565b600160a060020a0381166000908152600b60209081526040918290208054835181840281018401909452808452606093928301828280156111a1576000918252602091829020805463ffffffff168452908202830192909160049101808411611164575094979650505050505050565b60066020528160005260406000208181548110151561106c57fe5b600160a060020a0381166000908152600d60209081526040918290208054835181840281018401909452808452606093928301828280156111a1576000918252602091829020805463ffffffff168452908202830192909160049101808411611164575094979650505050505050565b63ffffffff1660009081526001602052604090206005015465010000000000900460ff1690565b600160a060020a0381166000908152600660209081526040918290208054835181840281018401909452808452606093928301828280156111a157602002820191906000526020600020905b8154600160a060020a031681526001909101906020018083116123325750505050509050919050565b600061236561215f565b151561237057600080fd5b5063ffffffff81166000908152600160205260409020805474010000000000000000000000000000000000000000900460ff16156123ad57600080fd5b805474ff00000000000000000000000000000000000000001916740100000000000000000000000000000000000000001781556123e982612f57565b60058201805464010000000061ffff9390931663ffffffff199091161764ff00000000191691909117905560405163ffffffff8316907fe74c03809d0769e1b1f706cc8414258cd1f3b6fe020cd15d0165c210ba503a0f90600090a25050565b600760209081526000928352604080842090915290825290205481565b600061247061215f565b151561247b57600080fd5b612485838361326d565b1561248f57612508565b5063ffffffff8281166000818152600160205260408082206005810180546501000000000069ffffffff0000000000001990911666010000000000009789169788021765ff000000000019161790559051909392917fb4d4850b8f218218141c5665cba379e53e9bb015b51e8d934be70210aead874a91a35b505050565b6001602081905260009182526040909120805491810154600282015460038301546005840154600690940154600160a060020a038087169660ff7401000000000000000000000000000000000000000090910481169663ffffffff808616956401000000008082048316966801000000000000000083048416966c01000000000000000000000000909304841695858516959283048116946501000000000084049091169366010000000000008404909116926a01000000000000000000009004811691168e565b3360009081526002602090815260409182902080548351818402810184019094528084526060939283018282801561265857602002820191906000526020600020906000905b82829054906101000a900463ffffffff1663ffffffff168152602001906004019060208260030104928301926001038202915080841161261b5790505b5050505050905090565b600160a060020a03918216600090815260046020908152604080832093909416825291909152205460ff1690565b63ffffffff8216600090815260016020526040812054600160a060020a0390811690831681148061110d5750600160a060020a03908116600090815260086020526040902054811692169190911492915050565b6126ec61215f565b15156126f757600080fd5b825161270a90600f9060208601906133a1565b50815161271e9060109060208501906133a1565b5080516127329060119060208401906133a1565b507ffafd04ade1daae2e1fdb0fc1cc6a899fd424063ed5c92120e67e073053b9489883838360405180806020018060200180602001848103845287818151815260200191508051906020019080838360005b8381101561279c578181015183820152602001612784565b50505050905090810190601f1680156127c95780820380516001836020036101000a031916815260200191505b50848103835286518152865160209182019188019080838360005b838110156127fc5781810151838201526020016127e4565b50505050905090810190601f1680156128295780820380516001836020036101000a031916815260200191505b50848103825285518152855160209182019187019080838360005b8381101561285c578181015183820152602001612844565b50505050905090810190601f1680156128895780820380516001836020036101000a031916815260200191505b50965050505050505060405180910390a1505050565b60006128a961215f565b15156128b457600080fd5b5063ffffffff811660009081526001602052604090206005810154640100000000900460ff1615156128e55761292d565b60058101805464ff0000000019811690915560405163ffffffff918216918416907fd7704f9a25193dbd0b0cb4a809feffffa7f19d1aae8817a71346c194448210d590600090a35b5050565b61293961215f565b151561294457600080fd5b600160a060020a03928316600090815260046020908152604080832094909516825292909252919020805460ff1916911515919091179055565b600061298861215f565b151561299357600080fd5b61299c82612f57565b61ffff16905063ffffffff82168114156129b55761292d565b63ffffffff80821660008181526001602081815260408084206003810180546c010000000000000000000000008082048a1687018a16026fffffffff000000000000000000000000199091161790556004908101805494850181558552938290206008840401805489881660079095169095026101000a848102970219909416959095179092558351908152925191927fb2d3a6e7a339f5c8ff96265e2f03a010a8541070f3744a247090964415081546929081900390910190a25050565b63ffffffff908116600090815260016020819052604090912090810154600282015460039092015490939192818116926401000000009092041690565b600080612abc61215f565b1515612ac757600080fd5b63ffffffff83166000908152600160205260409020600581015490925065010000000000900460ff161515612afb57612508565b5060058101805469ffffffffff000000000019811690915560405163ffffffff66010000000000009092048216918291908516907fd653bb0e0bb7ce8393e624d98fbf17cda5902c8328ed0cd09988f36890d9932a90600090a3505050565b63ffffffff91909116600090815260016020526040902054600160a060020a0391821691161490565b600c60209081526000928352604080842090915290825290205481565b600160a060020a0381166000908152600960209081526040918290208054835181840281018401909452808452606093928301828280156111a157602002820191906000526020600020908154600160a060020a031681526001909101906020018083116123325750505050509050919050565b600d602052816000526040600020818154811015156110a357fe5b60006101008263ffffffff161015612c49575060006111a9565b620100008263ffffffff161015612c62575060016111a9565b506002919050565b600a60209081526000928352604080842090915290825290205481565b6000806000806000612c9761215f565b1515612ca257600080fd5b600160a060020a0386161515612cb757600080fd5b63ffffffff8716600090815260016020526040902054600160a060020a0390811695508616851415612ce857612f0a565b600160a060020a03851615612e5d57600160a060020a038516600090815260036020908152604080832063ffffffff8b16845290915281205494508411612d2b57fe5b600160a060020a03851660009081526002602052604090208054600019958601959194509081019250839083908110612d6057fe5b90600052602060002090600891828204019190066004029054906101000a900463ffffffff169050808385815481101515612d9757fe5b600091825260208083206008830401805460079093166004026101000a63ffffffff818102199094169584160294909417909355600160a060020a038816825260038352604080832091851683529252206001850190558254839083908110612dfc57fe5b90600052602060002090600891828204019190066004026101000a81549063ffffffff0219169055818381612e319190613349565b50600160a060020a038516600090815260036020908152604080832063ffffffff8b1684529091528120555b63ffffffff87811660008181526001602081815260408084208054600160a060020a031916600160a060020a038e1690811790915580855260028352818520805494850181558086528386206008860401805460079096166004026101000a98890219909516978702979097179093558284529454600382528584208585529091528483205592517f16d0f539d49c6cad822b767a9445bfb1cf7ea6f2a6c2b120a7ea4cc7660d8fda9190a35b50505050505050565b600160a060020a03166000908152600b602052604090205490565b63ffffffff90811660009081526001602052604081206003015464010000000090049091161190565b6000620100008263ffffffff161015612f74575060ff81166111a9565b5061ffff1690565b6002602052816000526040600020818154811015156110a357fe5b600f8160038110612fa457fe5b018054604080516020601f60026000196101006001881615020190951694909404938401819004810282018101909252828152935083018282801561302a5780601f10612fff5761010080835404028352916020019161302a565b820191906000526020600020905b81548152906001019060200180831161300d57829003601f168201915b505050505081565b61303a61215f565b151561304557600080fd5b61304e816132d9565b50565b600061305b61215f565b151561306657600080fd5b5063ffffffff808216600081815260016020818152604092839020600381018054680100000000000000008082048916909501881685026bffffffff00000000000000001990911617908190558451939004909516825291517f29294799f1c21a37ef838e15f79dd91bcee2df99d63cd1c18ac968b129514e6e929181900390910190a25050565b63ffffffff166000908152600160205260409020600501546a01000000000000000000009004600160a060020a031690565b63ffffffff908116600090815260016020526040902060050154660100000000000090041690565b600061315261215f565b151561315d57600080fd5b5063ffffffff84166000908152600160208190526040909120908101548414801561318b5750600281015483145b80156131a35750600381015463ffffffff8381169116145b156131ad5761324b565b60018082018590556002820184905560038201805464010000000063ffffffff80871663ffffffff19909316831782810482169095018116820267ffffffff000000001990951694909417928390556040805189815260208101899052808201939093529204831660608201529051918716917faa10e7a0117d4323f1d99d630ec169bebb3a988e895770e351987e01ff5423d59181900360800190a25b5050505050565b600160a060020a031660009081526009602052604090205490565b63ffffffff82166000908152600160205260408120600581015465010000000000900460ff16801561110d575060058101546601000000000000900463ffffffff9081169084161491505092915050565b600560205260009081526040902054600160a060020a031681565b600160a060020a03811615156132ee57600080fd5b60008054604051600160a060020a03808516939216917f8be0079c531659141344cd1fd0a4f28419497f9722a3daafe3b4186f6b6457e091a360008054600160a060020a031916600160a060020a0392909216919091179055565b815481835581811115612508576007016008900481600701600890048360005260206000209182019101612508919061341f565b8154818355818111156125085760008381526020902061250891810190830161341f565b828054600181600116156101000203166002900490600052602060002090601f016020900481019282601f106133e257805160ff191683800117855561340f565b8280016001018555821561340f579182015b8281111561340f5782518255916020019190600101906133f4565b5061341b92915061341f565b5090565b61215c91905b8082111561341b57600081556001016134255600a165627a7a72305820014c25192294abcca9f05d0ac6dd58404a557584f54f636a4120b9637186f93c0029",
  "source": "//  the urbit ship data store\n\npragma solidity ^0.4.24;\n\nimport 'openzeppelin-solidity/contracts/ownership/Ownable.sol';\n\n//  Ships: ship state data contract\n//\n//    This contract is used for storing all data related to Urbit addresses\n//    and their ownership. Consider this contract the Urbit ledger.\n//\n//    It also contains permissions data, which ties in to ERC721\n//    functionality. Operators of an address are allowed to transfer\n//    ownership of all ships owned by their associated address\n//    (ERC721's approveAll()). A transfer proxy is allowed to transfer\n//    ownership of a single ship (ERC721's approve()).\n//    Separate from ERC721 are managers, assigned per owner address.\n//    They are allowed to perform \"low-impact\" operations on the owner's\n//    ships, like configuring public keys and making escape requests.\n//\n//    Since data stores are difficult to upgrade, this contract contains\n//    as little actual business logic as possible. Instead, the data stored\n//    herein can only be modified by this contract's owner, which can be\n//    changed and is thus upgradable/replacable.\n//\n//    Initially, this contract will be owned by the Constitution contract.\n//\ncontract Ships is Ownable\n{\n  //  OwnerChanged: :ship is now owned by :owner\n  //\n  event OwnerChanged(uint32 indexed ship, address indexed owner);\n\n  //  Activated: :ship is now activate\n  //\n  event Activated(uint32 indexed ship);\n\n  //  Spawned: :parent has spawned :child.\n  //\n  event Spawned(uint32 indexed parent, uint32 child);\n\n  //  EscapeRequested: :ship has requested a new sponsor, :sponsor\n  //\n  event EscapeRequested(uint32 indexed ship, uint32 indexed sponsor);\n\n  //  EscapeCanceled: :ship's :sponsor request was canceled or rejected\n  //\n  event EscapeCanceled(uint32 indexed ship, uint32 indexed sponsor);\n\n  //  EscapeAccepted: :ship confirmed with a new sponsor, :sponsor\n  //\n  event EscapeAccepted(uint32 indexed ship, uint32 indexed sponsor);\n\n  //  LostSponsor: :ship's sponsor is now refusing it service\n  //\n  event LostSponsor(uint32 indexed ship, uint32 indexed sponsor);\n\n  //  ChangedKeys: :ship has new Urbit public keys, :crypt and :auth\n  //\n  event ChangedKeys( uint32 indexed ship,\n                     bytes32 encryptionKey,\n                     bytes32 authenticationKey,\n                     uint32 cryptoSuiteVersion,\n                     uint32 keyRevisionNumber );\n\n  //  BrokeContinuity: :ship has a new continuity number, :number.\n  //\n  event BrokeContinuity(uint32 indexed ship, uint32 number);\n\n  //  ChangedSpawnProxy: :ship has a new spawn proxy\n  //\n  event ChangedSpawnProxy(uint32 indexed ship, address indexed spawnProxy);\n\n  //  ChangedTransferProxy: :ship has a new transfer proxy\n  //\n  event ChangedTransferProxy( uint32 indexed ship,\n                              address indexed transferProxy );\n\n  //  ChangedManager: :owner now allows :manager to manage its ships\n  //\n  event ChangedManager(address indexed owner, address indexed manager);\n\n  //  ChangedDelegate: :owner now allows :delegate to vote with its ships\n  //\n  event ChangedDelegate(address indexed owner, address indexed delegate);\n\n  //  ChangedDns: dnsDomains has been updated\n  //\n  event ChangedDns(string primary, string secondary, string tertiary);\n\n  //  Class: classes of ship registered on-chain\n  //\n  enum Class\n  {\n    Galaxy,\n    Star,\n    Planet\n  }\n\n  //  Hull: state of a ship\n  //\n  struct Hull\n  {\n    //  owner: address that owns this ship\n    //\n    address owner;\n\n    //  active: whether ship can be run\n    //\n    //    false: ship belongs to parent, cannot be booted\n    //    true: ship has been, or can be, booted\n    //\n    bool active;\n\n    //  encryptionKey: Urbit curve25519 encryption key, or 0 for none\n    //\n    bytes32 encryptionKey;\n\n    //  authenticationKey: Urbit ed25519 authentication key, or 0 for none\n    //\n    bytes32 authenticationKey;\n\n    //  cryptoSuiteNumber: version of the Urbit crypto suite used\n    //\n    uint32 cryptoSuiteVersion;\n\n    //  keyRevisionNumber: incremented every time we change the keys\n    //\n    uint32 keyRevisionNumber;\n\n    //  continuityNumber: incremented to indicate Urbit-side state loss\n    //\n    uint32 continuityNumber;\n\n    //  spawnCount: for stars and galaxies, number of :active children\n    //\n    uint32 spawnCount;\n\n    //  spawned: for stars and galaxies, all :active children\n    //\n    uint32[] spawned;\n\n    //  sponsor: ship that supports this one on the network, or,\n    //           if :hasSponsor is false, the last ship that supported it.\n    //           (by default, the ship's half-width prefix)\n    //\n    uint32 sponsor;\n\n    //  hasSponsor: true if the sponsor still supports the ship\n    //\n    bool hasSponsor;\n\n    //  escapeRequested: true if the ship has requested to change sponsors\n    //\n    bool escapeRequested;\n\n    //  escapeRequestedTo: if :escapeRequested is set, new sponsor requested\n    //\n    uint32 escapeRequestedTo;\n\n    //  spawnProxy: 0, or another address with the right to spawn children\n    //\n    address spawnProxy;\n\n    //  transferProxy: 0, or another address with the right to transfer owners\n    //\n    address transferProxy;\n  }\n\n  //  ships: all Urbit ship state\n  //\n  mapping(uint32 => Hull) public ships;\n\n  //  shipsOwnedBy: per address, list of ships owned\n  //\n  mapping(address => uint32[]) public shipsOwnedBy;\n\n  //  shipOwnerIndexes: per owner per ship, (index + 1) in shipsOwnedBy array\n  //\n  //    We delete owners by moving the last entry in the array to the\n  //    newly emptied slot, which is (n - 1) where n is the value of\n  //    shipOwnerIndexes[owner][ship].\n  //\n  mapping(address => mapping(uint32 => uint256)) public shipOwnerIndexes;\n\n  //  operators: per owner, per address, has the right to transfer ownership\n  //             of all the owner's ships (ERC721)\n  //\n  mapping(address => mapping(address => bool)) public operators;\n\n  //  managers: per owner, has the right to perform basic operations on ships\n  //\n  mapping(address => address) public managers;\n\n  //  managingFor: per address, the addresses they are managing ships for\n  //\n  mapping(address => address[]) public managingFor;\n\n  //  managingForIndexes: per address, per owner, (index + 1) in\n  //                      the managingFor array\n  //\n  mapping(address => mapping(address => uint256)) public managingForIndexes;\n\n  //  delegated: per owner, has the right to vote on behalf of ships\n  //\n  mapping(address => address) public delegates;\n\n  //  votingFor: per address, the addresses they are managing ships for\n  //\n  mapping(address => address[]) public votingFor;\n\n  //  votingForIndexes: per address, per owner, (index + 1) in\n  //                    the votingFor array\n  //\n  mapping(address => mapping(address => uint256)) public votingForIndexes;\n\n  //  transferringFor: per address, the ships they are transfer proxy for\n  //\n  mapping(address => uint32[]) public transferringFor;\n\n  //  transferringForIndexes: per address, per ship, (index + 1) in\n  //                          the transferringFor array\n  //\n  mapping(address => mapping(uint32 => uint256)) public transferringForIndexes;\n\n  //  spawningFor: per address, the ships they are spawn proxy for\n  //\n  mapping(address => uint32[]) public spawningFor;\n\n  //  spawningForIndexes: per address, per ship, (index + 1) in\n  //                      the spawningFor array\n  //\n  mapping(address => mapping(uint32 => uint256)) public spawningForIndexes;\n\n  //  dnsDomains: base domains for contacting galaxies in urbit\n  //\n  //    dnsDomains[0] is primary, the others are used as fallbacks\n  //\n  string[3] public dnsDomains;\n\n  //  constructor(): configure default dns domains\n  //\n  constructor()\n    public\n  {\n    setDnsDomains(\"urbit.org\", \"urbit.org\", \"urbit.org\");\n  }\n\n  //\n  //  Getters, setters and checks\n  //\n\n    //  setDnsDomains(): set the base domains used for contacting galaxies\n    //\n    //    Note: since a string is really just a byte[], and Solidity can't\n    //    work with two-dimensional arrays yet, we pass in the three\n    //    domains as individual strings.\n    //\n    function setDnsDomains(string _primary, string _secondary, string _tertiary)\n      onlyOwner\n      public\n    {\n      dnsDomains[0] = _primary;\n      dnsDomains[1] = _secondary;\n      dnsDomains[2] = _tertiary;\n      emit ChangedDns(_primary, _secondary, _tertiary);\n    }\n\n    //  getOwnedShips(): return array of ships that :msg.sender owns\n    //\n    //    Note: only useful for clients, as Solidity does not currently\n    //    support returning dynamic arrays.\n    //\n    function getOwnedShips()\n      view\n      external\n      returns (uint32[] ownedShips)\n    {\n      return shipsOwnedBy[msg.sender];\n    }\n\n    //  getOwnedShipsByAddress(): return array of ships that _whose owns\n    //\n    //    Note: only useful for clients, as Solidity does not currently\n    //    support returning dynamic arrays.\n    //\n    function getOwnedShipsByAddress(address _whose)\n      view\n      external\n      returns (uint32[] ownedShips)\n    {\n      return shipsOwnedBy[_whose];\n    }\n\n    //  getOwnedShipCount(): return length of array of ships that _whose owns\n    //\n    function getOwnedShipCount(address _whose)\n      view\n      external\n      returns (uint256 count)\n    {\n      return shipsOwnedBy[_whose].length;\n    }\n\n    //  getOwnedShipAtIndex(): get ship at _index from array of ships that\n    //                         _whose owns\n    //\n    function getOwnedShipAtIndex(address _whose, uint256 _index)\n      view\n      external\n      returns (uint32 ship)\n    {\n      uint32[] storage owned = shipsOwnedBy[_whose];\n      require(_index < owned.length);\n      return owned[_index];\n    }\n\n    //  isOwner(): true if _ship is owned by _address\n    //\n    function isOwner(uint32 _ship, address _address)\n      view\n      external\n      returns (bool result)\n    {\n      return (ships[_ship].owner == _address);\n    }\n\n    //  getOwner(): return owner of _ship\n    //\n    function getOwner(uint32 _ship)\n      view\n      external\n      returns (address owner)\n    {\n      return ships[_ship].owner;\n    }\n\n    //  setOwner(): set owner of _ship to _owner\n    //\n    //    Note: setOwner() only implements the minimal data storage\n    //    logic for a transfer; use the constitution contract for a\n    //    full transfer.\n    //\n    //    Note: _owner must not be the zero address.\n    //\n    function setOwner(uint32 _ship, address _owner)\n      onlyOwner\n      external\n    {\n      //  prevent burning of ships by making zero the owner\n      //\n      require(0x0 != _owner);\n\n      //  prev: previous owner, if any\n      //\n      address prev = ships[_ship].owner;\n\n      if (prev == _owner)\n      {\n        return;\n      }\n\n      //  if the ship used to have a different owner, do some gymnastics to\n      //  keep the list of owned ships gapless.  delete this ship from the\n      //  list, then fill that gap with the list tail.\n      //\n      if (0x0 != prev)\n      {\n        //  i: current index in previous owner's list of owned ships\n        //\n        uint256 i = shipOwnerIndexes[prev][_ship];\n\n        //  we store index + 1, because 0 is the solidity default value\n        //\n        assert(i > 0);\n        i--;\n\n        //  copy the last item in the list into the now-unused slot,\n        //  making sure to update its :shipOwnerIndexes reference\n        //\n        uint32[] storage owner = shipsOwnedBy[prev];\n        uint256 last = owner.length - 1;\n        uint32 moved = owner[last];\n        owner[i] = moved;\n        shipOwnerIndexes[prev][moved] = i + 1;\n\n        //  delete the last item\n        //\n        delete(owner[last]);\n        owner.length = last;\n        shipOwnerIndexes[prev][_ship] = 0;\n      }\n\n      //  update the owner list and the owner's index list\n      //\n      ships[_ship].owner = _owner;\n      shipsOwnedBy[_owner].push(_ship);\n      shipOwnerIndexes[_owner][_ship] = shipsOwnedBy[_owner].length;\n      emit OwnerChanged(_ship, _owner);\n    }\n\n    function isManager(address _owner, address _manager)\n      view\n      external\n      returns (bool result)\n    {\n      return (managers[_owner] == _manager);\n    }\n\n    //  canManage(): true if _who is the owner of _ship,\n    //               or the manager of _ship's owner\n    //\n    function canManage(uint32 _ship, address _who)\n      view\n      external\n      returns (bool result)\n    {\n      address owner = ships[_ship].owner;\n      return ( (_who == owner) ||\n               (_who == managers[owner]) );\n    }\n\n    function setManager(address _owner, address _manager)\n      onlyOwner\n      external\n    {\n      address prev = managers[_owner];\n      if (prev == _manager)\n      {\n        return;\n      }\n\n      //  if the owner used to have a different manager, do some gymnastics\n      //  to keep the reverse lookup gappless.  delete the owner from the\n      //  old manager's list, then fill that gap with the list tail.\n      //\n      if (0x0 != prev)\n      {\n        //  i: current index in previous manager's list of managing owners\n        //\n        uint256 i = managingForIndexes[prev][_owner];\n\n        //  we store index + 1, because 0 is the solidity default value\n        //\n        assert(i > 0);\n        i--;\n\n        //  copy the last item in the list into the now-unused slot,\n        //  making sure to update its :managingForIndexes reference\n        //\n        address[] storage prevMfor = managingFor[prev];\n        uint256 last = prevMfor.length - 1;\n        address moved = prevMfor[last];\n        prevMfor[i] = moved;\n        managingForIndexes[prev][moved] = i + 1;\n\n        //  delete the last item\n        //\n        delete(prevMfor[last]);\n        prevMfor.length = last;\n        managingForIndexes[prev][_owner] = 0;\n      }\n\n      if (0x0 != _manager)\n      {\n        address[] storage mfor = managingFor[_manager];\n        mfor.push(_owner);\n        managingForIndexes[_manager][_owner] = mfor.length;\n      }\n\n      managers[_owner] = _manager;\n      emit ChangedManager(_owner, _manager);\n    }\n\n    function getManagingForCount(address _manager)\n      view\n      external\n      returns (uint256 count)\n    {\n      return managingFor[_manager].length;\n    }\n\n    //  getManagingFor(): get the owners _manager is a manager for\n    //\n    //    Note: only useful for clients, as Solidity does not currently\n    //    support returning dynamic arrays.\n    //\n    function getManagingFor(address _manager)\n      view\n      external\n      returns (address[] mfor)\n    {\n      return managingFor[_manager];\n    }\n\n    function isDelegate(address _owner, address _delegate)\n      view\n      external\n      returns (bool result)\n    {\n      return (delegates[_owner] == _delegate);\n    }\n\n    //  canVoteAs(): true if _who is the owner of _ship,\n    //               or the delegate of _ship's owner\n    //\n    function canVoteAs(uint32 _ship, address _who)\n      view\n      external\n      returns (bool result)\n    {\n      address owner = ships[_ship].owner;\n      return ( (_who == owner) ||\n               (_who == delegates[owner]) );\n    }\n\n    function setDelegate(address _owner, address _delegate)\n      onlyOwner\n      external\n    {\n      address prev = delegates[_owner];\n      if (prev == _delegate)\n      {\n        return;\n      }\n\n      //  if the owner used to have a different delegate, do some gymnastics\n      //  to keep the reverse lookup gappless.  delete the owner from the\n      //  old delegate's list, then fill that gap with the list tail.\n      //\n      if (0x0 != prev)\n      {\n        //  i: current index in previous delegate's list of owners it was\n        //     delegated to by\n        //\n        uint256 i = votingForIndexes[prev][_owner];\n\n        //  we store index + 1, because 0 is the solidity default value\n        //\n        assert(i > 0);\n        i--;\n\n        //  copy the last item in the list into the now-unused slot,\n        //  making sure to update its :votingForIndexes reference\n        //\n        address[] storage prevVfor = votingFor[prev];\n        uint256 last = prevVfor.length - 1;\n        address moved = prevVfor[last];\n        prevVfor[i] = moved;\n        votingForIndexes[prev][moved] = i + 1;\n\n        //  delete the last item\n        //\n        delete(prevVfor[last]);\n        prevVfor.length = last;\n        votingForIndexes[prev][_owner] = 0;\n      }\n\n      if (0x0 != _delegate)\n      {\n        address[] storage vfor = votingFor[_delegate];\n        vfor.push(_owner);\n        votingForIndexes[_delegate][_owner] = vfor.length;\n      }\n\n      delegates[_owner] = _delegate;\n      emit ChangedDelegate(_owner, _delegate);\n    }\n\n    function getVotingForCount(address _delegate)\n      view\n      external\n      returns (uint256 count)\n    {\n      return votingFor[_delegate].length;\n    }\n\n    //  getVotingFor(): get the owners _delegate is a voter for\n    //\n    //    Note: only useful for clients, as Solidity does not currently\n    //    support returning dynamic arrays.\n    //\n    function getVotingFor(address _delegate)\n      view\n      external\n      returns (address[] vfor)\n    {\n      return votingFor[_delegate];\n    }\n\n    //  isActive(): return true if ship is active\n    //\n    function isActive(uint32 _ship)\n      view\n      external\n      returns (bool equals)\n    {\n      return ships[_ship].active;\n    }\n\n    //  activateShip(): activate a ship, register it as spawned by its parent\n    //\n    function activateShip(uint32 _ship)\n      onlyOwner\n      external\n    {\n      //  make a ship active, setting its sponsor to its prefix\n      //\n      Hull storage ship = ships[_ship];\n      require(!ship.active);\n      ship.active = true;\n      ship.sponsor = getPrefix(_ship);\n      ship.hasSponsor = true;\n      emit Activated(_ship);\n    }\n\n    //  registerSpawn(): add a ship to its parent's list of spawned ships\n    //\n    function registerSpawned(uint32 _ship)\n      onlyOwner\n      external\n    {\n      //  if a ship is its own prefix (a galaxy) then don't register it\n      //\n      uint32 prefix = getPrefix(_ship);\n      if (prefix == _ship)\n      {\n        return;\n      }\n\n      //  register a new spawned ship for the prefix\n      //\n      ships[prefix].spawnCount++;\n      ships[prefix].spawned.push(_ship);\n      emit Spawned(prefix, _ship);\n    }\n\n    function getKeys(uint32 _ship)\n      view\n      external\n      returns (bytes32 crypt, bytes32 auth, uint32 suite, uint32 revision)\n    {\n      Hull storage ship = ships[_ship];\n      return (ship.encryptionKey,\n              ship.authenticationKey,\n              ship.cryptoSuiteVersion,\n              ship.keyRevisionNumber);\n    }\n\n    function getKeyRevisionNumber(uint32 _ship)\n      view\n      external\n      returns (uint32 revision)\n    {\n      return ships[_ship].keyRevisionNumber;\n    }\n\n    //  hasBeenBooted(): returns true if the ship has ever been assigned keys\n    //\n    function hasBeenBooted(uint32 _ship)\n      view\n      external\n      returns (bool result)\n    {\n      return ( ships[_ship].keyRevisionNumber > 0 );\n    }\n\n    //  isLive(): returns true if _ship currently has keys properly configured\n    //\n    function isLive(uint32 _ship)\n      view\n      external\n      returns (bool result)\n    {\n      Hull storage ship = ships[_ship];\n      return ( ship.encryptionKey != 0 &&\n               ship.authenticationKey != 0 &&\n               ship.cryptoSuiteVersion != 0 );\n    }\n\n    //  setKeys(): set Urbit public keys of _ship to _encryptionKey and\n    //            _authenticationKey\n    //\n    function setKeys(uint32 _ship,\n                     bytes32 _encryptionKey,\n                     bytes32 _authenticationKey,\n                     uint32 _cryptoSuiteVersion)\n      onlyOwner\n      external\n    {\n      Hull storage ship = ships[_ship];\n      if ( ship.encryptionKey == _encryptionKey &&\n           ship.authenticationKey == _authenticationKey &&\n           ship.cryptoSuiteVersion == _cryptoSuiteVersion )\n      {\n        return;\n      }\n\n      ship.encryptionKey = _encryptionKey;\n      ship.authenticationKey = _authenticationKey;\n      ship.cryptoSuiteVersion = _cryptoSuiteVersion;\n      ship.keyRevisionNumber++;\n\n      emit ChangedKeys(_ship,\n                       _encryptionKey,\n                       _authenticationKey,\n                       _cryptoSuiteVersion,\n                       ship.keyRevisionNumber);\n    }\n\n    function getContinuityNumber(uint32 _ship)\n      view\n      external\n      returns (uint32 continuityNumber)\n    {\n      return ships[_ship].continuityNumber;\n    }\n\n    function incrementContinuityNumber(uint32 _ship)\n      onlyOwner\n      external\n    {\n      Hull storage ship = ships[_ship];\n      ship.continuityNumber++;\n      emit BrokeContinuity(_ship, ship.continuityNumber);\n    }\n\n    //  getSpawnCount(): return the number of children spawned by _ship\n    //\n    function getSpawnCount(uint32 _ship)\n      view\n      external\n      returns (uint32 spawnCount)\n    {\n      return ships[_ship].spawnCount;\n    }\n\n    //  getSpawned(): return array ships spawned under _ship\n    //\n    //    Note: only useful for clients, as Solidity does not currently\n    //    support returning dynamic arrays.\n    //\n    function getSpawned(uint32 _ship)\n      view\n      external\n      returns (uint32[] spawned)\n    {\n      return ships[_ship].spawned;\n    }\n\n    function getSponsor(uint32 _ship)\n      view\n      external\n      returns (uint32 sponsor)\n    {\n      return ships[_ship].sponsor;\n    }\n\n    function hasSponsor(uint32 _ship)\n      view\n      external\n      returns (bool has)\n    {\n      return ships[_ship].hasSponsor;\n    }\n\n    function isSponsor(uint32 _ship, uint32 _sponsor)\n      view\n      external\n      returns (bool result)\n    {\n      Hull storage ship = ships[_ship];\n      return ( ship.hasSponsor &&\n               (ship.sponsor == _sponsor) );\n    }\n\n    function loseSponsor(uint32 _ship)\n      onlyOwner\n      external\n    {\n      Hull storage ship = ships[_ship];\n      if (!ship.hasSponsor)\n      {\n        return;\n      }\n      ship.hasSponsor = false;\n      emit LostSponsor(_ship, ship.sponsor);\n    }\n\n    function isEscaping(uint32 _ship)\n      view\n      external\n      returns (bool escaping)\n    {\n      return ships[_ship].escapeRequested;\n    }\n\n    function getEscapeRequest(uint32 _ship)\n      view\n      external\n      returns (uint32 escape)\n    {\n      return ships[_ship].escapeRequestedTo;\n    }\n\n    function isRequestingEscapeTo(uint32 _ship, uint32 _sponsor)\n      view\n      public\n      returns (bool equals)\n    {\n      Hull storage ship = ships[_ship];\n      return (ship.escapeRequested && (ship.escapeRequestedTo == _sponsor));\n    }\n\n    function setEscapeRequest(uint32 _ship, uint32 _sponsor)\n      onlyOwner\n      external\n    {\n      if (isRequestingEscapeTo(_ship, _sponsor))\n      {\n        return;\n      }\n      Hull storage ship = ships[_ship];\n      ship.escapeRequestedTo = _sponsor;\n      ship.escapeRequested = true;\n      emit EscapeRequested(_ship, _sponsor);\n    }\n\n    function cancelEscape(uint32 _ship)\n      onlyOwner\n      external\n    {\n      Hull storage ship = ships[_ship];\n      if (!ship.escapeRequested)\n      {\n        return;\n      }\n      uint32 request = ship.escapeRequestedTo;\n      ship.escapeRequestedTo = 0;\n      ship.escapeRequested = false;\n      emit EscapeCanceled(_ship, request);\n    }\n\n    //  doEscape(): perform the requested escape\n    //\n    function doEscape(uint32 _ship)\n      onlyOwner\n      external\n    {\n      Hull storage ship = ships[_ship];\n      require(ship.escapeRequested);\n      ship.sponsor = ship.escapeRequestedTo;\n      ship.hasSponsor = true;\n      ship.escapeRequestedTo = 0;\n      ship.escapeRequested = false;\n      emit EscapeAccepted(_ship, ship.sponsor);\n    }\n\n    function isSpawnProxy(uint32 _ship, address _spawner)\n      view\n      external\n      returns (bool result)\n    {\n      return (ships[_ship].spawnProxy == _spawner);\n    }\n\n    function getSpawnProxy(uint32 _ship)\n      view\n      external\n      returns (address spawnProxy)\n    {\n      return ships[_ship].spawnProxy;\n    }\n\n    function setSpawnProxy(uint32 _ship, address _spawner)\n      onlyOwner\n      external\n    {\n      Hull storage ship = ships[_ship];\n      address prev = ship.spawnProxy;\n      if (prev == _spawner)\n      {\n        return;\n      }\n\n      //  if the ship used to have a different spawn proxy, do some\n      //  gymnastics to keep the reverse lookup gappless.  delete the ship\n      //  from the old proxy's list, then fill that gap with the list tail.\n      //\n      if (0x0 != prev)\n      {\n        //  i: current index in previous proxy's list of spawning ships\n        //\n        uint256 i = spawningForIndexes[prev][_ship];\n\n        //  we store index + 1, because 0 is the solidity default value\n        //\n        assert(i > 0);\n        i--;\n\n        //  copy the last item in the list into the now-unused slot,\n        //  making sure to update its :spawningForIndexes reference\n        //\n        uint32[] storage prevSfor = spawningFor[prev];\n        uint256 last = prevSfor.length - 1;\n        uint32 moved = prevSfor[last];\n        prevSfor[i] = moved;\n        spawningForIndexes[prev][moved] = i + 1;\n\n        //  delete the last item\n        //\n        delete(prevSfor[last]);\n        prevSfor.length = last;\n        spawningForIndexes[prev][_ship] = 0;\n      }\n\n      if (0x0 != _spawner)\n      {\n        uint32[] storage sfor = spawningFor[_spawner];\n        sfor.push(_ship);\n        spawningForIndexes[_spawner][_ship] = sfor.length;\n      }\n\n      ship.spawnProxy = _spawner;\n      emit ChangedSpawnProxy(_ship, _spawner);\n    }\n\n    function getSpawningForCount(address _proxy)\n      view\n      external\n      returns (uint256 count)\n    {\n      return spawningFor[_proxy].length;\n    }\n\n    //  getSpawningFor(): get the ships _proxy is a spawn proxy for\n    //\n    //    Note: only useful for clients, as Solidity does not currently\n    //    support returning dynamic arrays.\n    //\n    function getSpawningFor(address _proxy)\n      view\n      external\n      returns (uint32[] sfor)\n    {\n      return spawningFor[_proxy];\n    }\n\n    function isTransferProxy(uint32 _ship, address _transferrer)\n      view\n      external\n      returns (bool result)\n    {\n      return (ships[_ship].transferProxy == _transferrer);\n    }\n\n    function getTransferProxy(uint32 _ship)\n      view\n      external\n      returns (address transferProxy)\n    {\n      return ships[_ship].transferProxy;\n    }\n\n    //  setTransferProxy(): configure _transferrer as transfer proxy for _ship\n    //\n    function setTransferProxy(uint32 _ship, address _transferrer)\n      onlyOwner\n      external\n    {\n      Hull storage ship = ships[_ship];\n      address prev = ship.transferProxy;\n      if (prev == _transferrer)\n      {\n        return;\n      }\n\n      //  if the ship used to have a different transfer proxy, do some\n      //  gymnastics to keep the reverse lookup gappless.  delete the ship\n      //  from the old proxy's list, then fill that gap with the list tail.\n      //\n      if (0x0 != prev)\n      {\n        //  i: current index in previous proxy's list of transferable ships\n        //\n        uint256 i = transferringForIndexes[prev][_ship];\n\n        //  we store index + 1, because 0 is the solidity default value\n        //\n        assert(i > 0);\n        i--;\n\n        //  copy the last item in the list into the now-unused slot,\n        //  making sure to update its :transferringForIndexes reference\n        //\n        uint32[] storage prevTfor = transferringFor[prev];\n        uint256 last = prevTfor.length - 1;\n        uint32 moved = prevTfor[last];\n        prevTfor[i] = moved;\n        transferringForIndexes[prev][moved] = i + 1;\n\n        //  delete the last item\n        //\n        delete(prevTfor[last]);\n        prevTfor.length = last;\n        transferringForIndexes[prev][_ship] = 0;\n      }\n\n      if (0x0 != _transferrer)\n      {\n        uint32[] storage tfor = transferringFor[_transferrer];\n        tfor.push(_ship);\n        transferringForIndexes[_transferrer][_ship] = tfor.length;\n      }\n\n      ship.transferProxy = _transferrer;\n      emit ChangedTransferProxy(_ship, _transferrer);\n    }\n\n    function getTransferringForCount(address _proxy)\n      view\n      external\n      returns (uint256 count)\n    {\n      return transferringFor[_proxy].length;\n    }\n\n    //  getTransferringFor(): get the ships _proxy is a transfer proxy for\n    //\n    //    Note: only useful for clients, as Solidity does not currently\n    //    support returning dynamic arrays.\n    //\n    function getTransferringFor(address _proxy)\n      view\n      external\n      returns (uint32[] tfor)\n    {\n      return transferringFor[_proxy];\n    }\n\n    function isOperator(address _owner, address _operator)\n      view\n      external\n      returns (bool result)\n    {\n      return operators[_owner][_operator];\n    }\n\n    //  setOperator(): dis/allow _operator to transfer ownership of all ships\n    //                 owned by _owner\n    //\n    //    operators are part of the ERC721 standard\n    //\n    function setOperator(address _owner, address _operator, bool _approved)\n      onlyOwner\n      external\n    {\n      operators[_owner][_operator] = _approved;\n    }\n\n  //\n  //  Utility functions\n  //\n\n    //  getPrefix(): compute prefix parent of _ship\n    //\n    function getPrefix(uint32 _ship)\n      pure\n      public\n      returns (uint16 parent)\n    {\n      if (_ship < 65536)\n      {\n        return uint16(_ship % 256);\n      }\n      return uint16(_ship % 65536);\n    }\n\n    //  getShipClass(): return the class of _ship\n    //\n    function getShipClass(uint32 _ship)\n      external\n      pure\n      returns (Class _class)\n    {\n      if (_ship < 256) return Class.Galaxy;\n      if (_ship < 65536) return Class.Star;\n      return Class.Planet;\n    }\n}\n",
  "sourcePath": "/Users/jtobin/projects/travis-testing/contracts/Ships.sol",
  "compiler": {
    "name": "solc",
    "version": "0.4.24+commit.e67f0147.Emscripten.clang"
  },
  "schemaVersion": "2.0.1",
  "updatedAt": "2018-10-29T15:04:48.938Z"
}